tcpdump -XX -i eth0

18:25:05.364804 IP 198.96.84.204.16661 > comp3134host.ssh: Flags [P.], seq 197:253, ack 785884, win 18, length 56
        0x0000:  ea08 86fb 5f93 fe00 0000 0101 0800 4500  ...._.........E.
        0x0010:  0060 54ac 4000 7b06 c43a c660 54cc a5e3  .`T.@.{..:.`T...
        0x0020:  25a1 4115 0016 4bf5 5e61 57f0 fa14 5018  %.A...K.^aW...P.
        0x0030:  0012 e779 0000 0000 0010 aad4 271a c04e  ...y........'..N
        0x0040:  19dd 9170 0ad0 e781 6075 e1da 2dbe d755  ...p....`u..-..U
        0x0050:  544f 0000 0010 f875 eef9 6de4 3c5b 302b  TO.....u..m.<[0+
        0x0060:  5f3c c1fa 29f1 819f 6594 7c65 6783       _<..)...e.|eg.
18:25:05.364819 IP comp3134host.ssh > 198.96.84.204.16661: Flags [.], ack 253, win 501, length 0
        0x0000:  fe00 0000 0101 ea08 86fb 5f93 0800 4510  .........._...E.
        0x0010:  0028 455a 4000 4006 0eb5 a5e3 25a1 c660  .(EZ@.@.....%..`
        0x0020:  54cc 0016 4115 57f1 0c14 4bf5 5e99 5010  T...A.W...K.^.P.
        0x0030:  01f5 e6cb 0000                           ......
18:25:05.366920 IP 198.96.84.204.16661 > comp3134host.ssh: Flags [.], ack 788484, win 8, length 0
        0x0000:  ea08 86fb 5f93 fe00 0000 0101 0800 4500  ...._.........E.
        0x0010:  0028 54ad 4000 7b06 c471 c660 54cc a5e3  .(T.@.{..q.`T...
        0x0020:  25a1 4115 0016 4bf5 5e99 57f1 043c 5010  %.A...K.^.W..<P.
        0x0030:  0008 8134 0000 0000 0000 0000            ...4........
18:25:05.366948 IP 198.96.84.204.16661 > comp3134host.ssh: Flags [.], ack 790492, win 0, length 0
        0x0000:  ea08 86fb 5f93 fe00 0000 0101 0800 4500  ...._.........E.
        0x0010:  0028 54ae 4000 7b06 c470 c660 54cc a5e3  .(T.@.{..p.`T...
        0x0020:  25a1 4115 0016 4bf5 5e99 57f1 0c14 5010  %.A...K.^.W...P.
        0x0030:  0000 7964 0000 0000 0000 0000            ..yd........
18:25:05.573657 IP comp3134host.ssh > 198.96.84.204.16661: Flags [.], ack 253, win 501, length 0
        0x0000:  fe00 0000 0101 ea08 86fb 5f93 0800 4510  .........._...E.
        0x0010:  0028 455b 4000 4006 0eb4 a5e3 25a1 c660  .(E[@.@.....%..`
        0x0020:  54cc 0016 4115 57f1 0c13 4bf5 5e99 5010  T...A.W...K.^.P.
        0x0030:  01f5 e6cb 0000                           ......
18:25:05.604096 IP 198.96.84.204.16661 > comp3134host.ssh: Flags [.], ack 790492, win 494, length 0
^C      0x0000:  ea08 86fb 5f93 fe00 0000 0101 0800 4500  ...._.........E.
        0x0010:  0028 54af 4000 7b06 c46f c660 54cc a5e3  .(T.@.{..o.`T...
        0x0020:  25a1 4115 0016 4bf5 5e99 57f1 0c14 5010  %.A...K.^.W...P.
        0x0030:  01ee 7776 0000 0000 0000 0000            ..wv........

263 packets captured
2503 packets received by filter
2234 packets dropped by kernel
